:020000040800F2
:1000000000000220110E0008A1070008A307000845
:10001000A5070008A7070008A907000800000000BE
:10002000000000000000000000000000AB07000816
:10003000AD07000800000000AF070008B107000886
:10004000610E0008610E0008610E0008610E0008D4
:10005000610E0008610E0008610E0008610E0008C4
:10006000610E0008610E0008610E0008610E0008B4
:10007000610E0008610E0008610E0008610E0008A4
:10008000610E0008610E0008610E0008610E000894
:10009000610E0008610E0008610E0008610E000884
:1000A000610E0008610E0008610E0008610E000874
:1000B000610E0008610E0008610E0008610E000864
:1000C000610E0008610E0008610E0008610E000854
:1000D000610E0008610E0008610E0008610E000844
:1000E000610E0008610E0008610E0008B9070008E3
:1000F000C9070008D9070008E9070008610E0008D1
:10010000610E0008610E0008610E0008610E000813
:10011000610E0008610E0008F9070008610E000872
:10012000610E0008610E0008610E0008610E0008F3
:10013000610E0008610E0008610E0008610E0008E3
:10014000610E0008610E0008610E0008610E0008D3
:10015000610E0008610E0008610E0008610E0008C3
:10016000610E0008610E0008610E0008610E0008B3
:10017000610E0008610E0008610E0008000000001A
:08018000610E0008610E000889
:1001880053B94AB9002908BF00281CBF4FF0FF31F6
:100198004FF0FF3000F00CB8ADF1080C6DE904CE5B
:1001A80002F020FDDDF804E0DDE9022304B0704729
:1001B800704700BF0348044B834202D0034B03B18E
:1001C80018477047100000201000002000000000B1
:1001D8000548064B1B1AD90F01EBA301491002D0A1
:1001E800034B03B11847704710000020100000208F
:1001F8000000000010B5064C237843B9FFF7DAFF7A
:10020800044B13B10448AFF300800123237010BDE1
:1002180010000020000000006C30000808B5054BF5
:100228001BB105490548AFF30080BDE80840FFF75A
:10023800CFBF00BF00000000140000206C30000891
:1002480000B585B0002300930193029303931548EA
:10025800154A02604FF4803242608360036103767E
:1002680080F82030C362114A8262C3600122C261F1
:1002780080F83030426100F0F1FE68B90323009342
:1002880001230193002302936946064800F012FFF8
:1002980028B905B05DF804FB00F090F9EEE700F02E
:1002A8008DF9F6E774000020002001400100000FDE
:1002B80000B585B00023009301930293039315487A
:1002C800154A02604FF4803242608360036103760E
:1002D80080F82030C362114A8262C3600122C26181
:1002E80080F83030426100F0B9FE68B90923009304
:1002F80001230193002302936946064800F0DAFEC1
:1003080028B905B05DF804FB00F058F9EEE700F0F5
:1003180055F9F6E72C000020002201400100000FEB
:1003280030B58DB000230793089309930A930B9374
:100338000368354A934204D0344A934243D00DB0FF
:1003480030BD00240194324B5A6C42F480725A64D6
:100358005A6C02F480720192019A02941A6B42F06C
:1003680004021A631A6B02F004020292029A0394BE
:100378001A6B42F001021A631A6B02F0010203922F
:10038800039A04941A6B42F002021A631B6B03F07F
:1003980002030493049B0D2307930325089507A9DB
:1003A8001C4800F0CDFF582307930895099407A926
:1003B800194800F0C5FF07950895099407A917483B
:1003C80000F0BEFFBBE700210591114B5A6C42F4C7
:1003D80080625A645A6C02F480620592059A06910A
:1003E8001A6B42F020021A631B6B03F0200306937A
:1003F800069B4FF4FF6307930323089307A9084854
:1004080000F09EFF9BE700BF002001400022014052
:100418000038024000080240000002400004024088
:1004280000140240F0B58DB0002407940894099494
:100438000A940B940094334B1A6B42F010021A631F
:100448001A6B02F010020092009A01941A6B42F0A3
:1004580004021A631A6B02F004020192019A0294D0
:100468001A6B42F020021A631A6B02F02002029201
:10047800029A03941A6B42F080021A631A6B02F014
:1004880080020392039A04941A6B42F001021A63E1
:100498001A6B02F001020492049A05941A6B42F056
:1004A80002021A631A6B02F002020592059A069478
:1004B8001A6B42F480721A631B6B03F48073069301
:1004C800069B114F22464021384601F033F80F4E63
:1004D80022460121304601F02DF8402307930125DB
:1004E800089509940A9407A9384600F029FF07954A
:1004F800089509940A9407A9304600F021FF0DB029
:10050800F0BD00BF00380240001002400020024049
:1005180008B50B480B4B03600B4B4360002383600B
:10052800C3604FF48042026143618361C361036227
:1005380001F006F800B908BD00F040F8FBE700BF7D
:10054800BC00002000580040A086010030B589B0EA
:100558000023039304930593069307930268144BAF
:100568009A4201D009B030BD00250195114C236B8A
:1005780043F080032363236B03F080030193019B03
:100588003023039312230493012306930423079330
:1005980003A9094800F0D4FE0295236C43F48003B4
:1005A8002364236C03F480030293029BDAE700BF01
:1005B8000058004000380240001C024072B6FEE7B6
:1005C80000B595B03022002108A802F069FC00238C
:1005D800039304930593069307930193214A116C9F
:1005E80041F080511164126C02F080520192019A1C
:1005F80002931D4B1A6842F480421A601B6803F488
:1006080080430293029B012308934FF4803309939C
:1006180002230E934FF480020F92192210924FF486
:10062800A872119212930723139308A801F0E8F80F
:1006380098B90F23039302230493002305934FF4DF
:10064800A05306934FF480530793052103A801F0A4
:1006580027FB20B915B05DF804FBFFF7AFFFFFF7E4
:10066800ADFF00BF003802400070004008B500F040
:100678001BFCFFF7A5FFFFF7D5FE00F04FFA00F0CF
:100688006FFBFFF715FE00F0C1F900F0EDFAFFF778
:10069800D7FD00F0CFFA00F005F8FFF739FF00F0BA
:1006A800B1F8FEE708B51048104B03604FF48273A9
:1006B8004360002383604FF40062C260022202613B
:1006C800012242614FF4007282610822C261036212
:1006D800436283620A23C36201F0B8FB00B908BD14
:1006E800FFF76CFFFBE700BF100100200038004057
:1006F80000B589B0002303930493059306930793E9
:100708000268154B9A4202D009B05DF804FB00213B
:10071800019103F500331A6C42F480421A641A6C92
:1007280002F480420192019A02911A6B42F480729B
:100738001A631B6B03F480730293029B0E230393CB
:1007480002230493032306930523079303A903486D
:1007580000F0F6FDD8E700BF003800400020024056
:1007680082B0002100910B4B5A6C42F480425A64CB
:100778005A6C02F480420092009A01911A6C42F07D
:1007880080521A641B6C03F080530193019B02B0E2
:10079800704700BF00380240FEE7FEE7FEE7FEE7CD
:1007A800FEE770477047704708B500F097FB08BD33
:1007B80008B5024801F075FC08BD00BF68010020BB
:1007C80008B5024801F06DFC08BD00BF68010020B3
:1007D80008B5024801F065FC08BD00BF68010020AB
:1007E80008B5024801F05DFC08BD00BF68010020A3
:1007F80008B5024801F055FC08BD00BFB001002053
:100808007047000000B583B00023009301930F48A0
:100818000F4A026044F29F124260836042F20F72F4
:10082800C260836101F058FD50B900230093019321
:100838006946064801F0DAFE28B903B05DF804FB02
:10084800FFF7BCFEF1E7FFF7B9FEF6E7B0010020BD
:100858000010004010B584B003682C4A934207D0BA
:100868002B4A934211D02B4A934222D004B010BD98
:1008780000230193284B5A6C42F001025A645B6CC6
:1008880003F001030193019BF0E700210291224B41
:100898001A6C42F010021A641B6C03F010030293E6
:1008A800029B0A46362000F023FD362000F030FD7A
:1008B800DCE700240394184B5A6C42F002025A6495
:1008C8005B6C03F002030393039B224621462B2013
:1008D80000F00EFD2B2000F01BFD224621462C20A7
:1008E80000F006FD2C2000F013FD224621462D20A5
:1008F80000F0FEFC2D2000F00BFD224621462E20A4
:1009080000F0F6FC2E2000F003FDAFE700000140E8
:1009180000100040000401400038024070B58AB061
:100928000023059306930793089309930368304AB5
:10093800934204D02F4A93422ED00AB070BD0024AF
:1009480001942D4B1A6B42F002021A631A6B02F0E3
:1009580002020192019A02941A6B42F001021A6390
:100968001B6B03F001030293029B4FF46043059352
:10097800022606960125099505A9204800F0E0FC05
:100988004FF4E0630593069607940894099505A922
:100998001B4800F0D5FCD0E700240394164B1A6BD3
:1009A80042F080021A631A6B02F080020392039AE3
:1009B80004941A6B42F480721A631B6B03F48073FD
:1009C8000493049B4FF4604305930226069603257F
:1009D800099505A90B4800F0B3FCE023059306969A
:1009E80007940894099505A9074800F0A9FCA4E70D
:1009F80000000140000401400038024000040240A9
:100A080000000240001C02400020024010B596B0D1
:100A18000024129413941494159410941194099426
:100A28000A940B940C940D940E940F942022214652
:100A380001A802F035FA3748374B03605323436067
:100A48006023836040F2E733C3600461446180231C
:100A5800836101F041FC002844D14FF48053129384
:100A680012A92C4801F042FD00283ED1294801F086
:100A78005FFC00283CD100231093119310A925484E
:100A880001F0B4FD002836D16023099300220A92B0
:100A98000B920C920D920E920F9209A91D4801F02B
:100AA800ABFC58BB042209A91A4801F0A5FC40BBBD
:100AB800082209A9174801F09FFC28BB00230193CD
:100AC80002930393049305934FF4005206920893FC
:100AD80001A9104801F0D0FDC8B90E48FFF71EFF64
:100AE80016B010BDFFF76AFDB7E7FFF767FDBDE772
:100AF800FFF764FDBFE7FFF761FDC5E7FFF75EFDA0
:100B0800D0E7FFF75BFDD3E7FFF758FDD6E7FFF720
:100B180055FDE2E7F80100200000014030B597B02C
:100B28000024129413941494159410941194099415
:100B38000A940B940C940D940E940F9420252A4635
:100B4800214601A802F0ACF93848394B0360A723C5
:100B58004360856040F2E733C360046144618023E9
:100B6800836101F0B9FB002847D14FF480531293F9
:100B780012A92E4801F0BAFC002841D12B4801F0F7
:100B8800D7FB00283FD100231093119310A92748C1
:100B980001F02CFD002839D16023099300220A9224
:100BA8000B920C920D924FF480730E930F9209A939
:100BB8001E4801F021FC60BB042209A91B4801F072
:100BC8001BFC48BB082209A9184801F015FC30BBDA
:100BD80000230193029303936422049205934FF434
:100BE80000520692089301A9104801F045FDC8B9C2
:100BF8000E48FFF793FE17B030BDFFF7DFFCB4E7F0
:100C0800FFF7DCFCBAE7FFF7D9FCBCE7FFF7D6FC37
:100C1800C2E7FFF7D3FCCFE7FFF7D0FCD2E7FFF737
:100C2800CDFCD5E7FFF7CAFCE2E700BF680100206A
:100C38000004014008B50A480A4B03604FF4E13349
:100C4800436000238360C36003610C2242618361B7
:100C5800C36101F0C5FD00B908BDFFF7AFFCFBE7B4
:100C6800880200200010014008B50A480A4B0360BA
:100C78004FF4E133436000238360C36003610C22B7
:100C880042618361C36101F0ABFD00B908BDFFF7A4
:100C980095FCFBE7400200200048004000B58BB0FF
:100CA8000023059306930793089309930368284A3A
:100CB800934205D0274A934225D00BB05DF804FB38
:100CC80000210191244B5A6C42F010025A645A6C6C
:100CD80002F010020192019A02911A6B42F002028C
:100CE8001A631B6B03F002030293029BC023059354
:100CF80002230693032308930723099305A917489A
:100D080000F01EFBD9E700210391134B1A6C42F443
:100D180080221A641A6C02F480220392039A0491C6
:100D28001A6B42F002021A631B6B03F0020304936E
:100D3800049B4FF44063059302230693032308930F
:100D48000723099305A9054800F0FAFAB5E700BF9B
:100D580000100140004800400038024000040240F2
:100D680008B50B484FF0A043036004230371022227
:100D7800C2710023837142728372C37203738373D7
:100D8800C37300F0BBFC00B908BDFFF717FCFBE715
:100D9800D002002030B589B0002303930493059353
:100DA800069307930368B3F1A04F01D009B030BD93
:100DB80000250195124C236B43F001032363236B39
:100DC80003F001030193019B4FF4C05303930223E3
:100DD8000493032306930A23079303A9094800F001
:100DE800AFFA636B43F0800363630295636C43F46B
:100DF80080436364636C03F480430293029BD5E7EA
:100E08000038024000000240DFF834D0FFF7F8FC59
:100E18000C480D490D4A002302E0D458C45004334D
:100E2800C4188C42F9D30A4A0A4C002301E0136023
:100E38000432A242FBD302F085F8FFF717FC704793
:100E4800000002200000002010000020B030000840
:100E58001000002050090020FEE7000010B50446ED
:100E68000E4B1A784FF47A73B3FBF2F30C4A1068FE
:100E7800B0FBF3F000F050FA68B90F2C01D901204B
:100E88000AE0002221464FF0FF3000F031FA054B0E
:100E98001C60002000E0012010BD00BF04000020FD
:100EA800000000200800002008B50B4B1A6842F427
:100EB80000721A601A6842F480621A601A6842F472
:100EC80080721A60032000F001FA0320FFF7C6FFC2
:100ED800FFF746FC002008BD003C0240034A1168A9
:100EE800034B1B780B441360704700BFB407002006
:100EF80004000020014B1868704700BFB4070020A9
:100F080038B50446FFF7F6FF0546B4F1FF3F02D0B7
:100F1800044B1B781C44FFF7EDFF401BA042FAD39B
:100F280038BD00BF040000204A4B5A6822F4403202
:100F38005A605A6841680A435A600268536823F441
:100F48008073536002685368016943EA0123536060
:100F58000268536823F040735360026853688168DD
:100F68000B4353600268936823F40063936002683C
:100F78009368C1680B439360826A374B9A4257D093
:100F88000268936823F07063936002689368816ACB
:100F98000B4393600268936823F0405393600268A0
:100FA8009368C16A0B4393600268936823F0020355
:100FB800936002689368017E43EA4103936090F866
:100FC8002030002B3FD00268536843F4006353601D
:100FD8000268536823F46043536001684B68426AAF
:100FE800013A43EA42334B600268D36A23F4700340
:100FF800D3620168CB6AC269013A43EA0253CB6201
:101008000268936823F4007393600268936890F809
:10101800301043EA412393600268936823F48063A5
:10102800936002689368416943EA8123936070473B
:101038000268936823F0706393600268936823F0F2
:1010480040539360B0E70268536823F40063536029
:10105800CAE700BF002301400100000F38B310B5F4
:101068000446036C43B1236C13F0100F0BD001201E
:10107800002384F83C3010BDFFF752F90023636465
:1010880084F83C30EFE7236C23F4885323F0020301
:1010980043F0020323642046FFF746FF0020606404
:1010A800236C23F0030343F001032364E0E70120EA
:1010B8007047000030B482B00022019290F83C20C2
:1010C800012A00F0B6800346012280F83C200A6815
:1010D800092A40D90468E06892B202EB42021E3A3B
:1010E8004FF0070C0CFA02F220EA0202E2601C68D8
:1010F800E0680A8802EB42021E3A8D6805FA02F29D
:101108000243E2604A68062A3CD81C68606B02EB1E
:101118008202053A4FF01F0C0CFA02F220EA020292
:1011280062631C68606B4A6802EB8202053AB1F898
:1011380000C00CFA02F20243626318683E4A904209
:1011480050D018683C4A904255D0002083F83C00A3
:1011580002B030BC70470468206992B202EB4202C8
:101168004FF0070C0CFA02F220EA020222611C6816
:1011780020690A8802EB42028D6805FA02F20243EE
:101188002261BFE70C2A16D81D68286B02EB820281
:10119800233A1F2404FA02F220EA02022A631D6895
:1011A800286B4A6802EB8202233A0C8804FA02F29E
:1011B80002432A63C1E71D68E86A02EB8202413AEA
:1011C8001F2404FA02F220EA0202EA621D68E86AB1
:1011D8004A6802EB8202413A0C8804FA02F202439E
:1011E800EA62AAE70A68122AABD11448426842F4B4
:1011F80080024260A5E70A68103A012AA5D80F487C
:10120800426842F4000242600A68102A9DD10C4AE2
:1012180012680C49A1FB0212920C02EB82025200E6
:10122800019202E0019A013A0192019A002AF9D149
:101238008BE702208CE700BF00200140002301401B
:101248000000002083DE1B43002807DB00F01F029C
:10125800400901239340024A42F82030704700BFFA
:1012680000E100E0002808DB0901C9B200F1604094
:1012780000F5614080F80013704700F00F00090185
:10128800C9B2014B1954704714ED00E000B500F0E5
:101298000700C0F1070CBCF1040F28BF4FF0040C85
:1012A800031D062B0FD9C31E4FF0FF3E0EFA0CF09C
:1012B80021EA000199400EFA03FE22EA0E0241EAF1
:1012C80002005DF804FB0023EEE70000074AD3683C
:1012D80023F4E0631B041B0C000200F4E0600343EA
:1012E80043F0BF6343F40033D360704700ED00E080
:1012F80010B50446054BD868C0F30220FFF7C6FFB7
:1013080001462046FFF7AEFF10BD00BF00ED00E02C
:1013180008B5FFF799FF08BD0138B0F1807F0BD2FF
:101328004FF0E0235861054AF02182F8231000208D
:10133800986107221A6170470120704700ED00E0AC
:1013480000230F2B00F2EC8030B583B068E085688D
:101358004FEA430E032404FA0EF425EA0405CC6888
:1013680004FA0EF42C438460446824EA02044A68B0
:10137800C2F300129A40224342605FE0DC0808345E
:1013880050F8242003F00705AD004FF00F0E0EFAB9
:1013980005FE22EA0E0E0A69AA4042EA0E0240F849
:1013A80024205FE0072200E0002202FA0EF22A431E
:1013B80002345C4D45F824205B4A94686FEA0C02BD
:1013C80024EA0C05D1F804E01EF4801F01D04CEA91
:1013D8000405554CA560E46802EA0405D1F804E068
:1013E8001EF4001F01D04CEA04054F4CE560646808
:1013F80002EA0405D1F804E01EF4003F01D04CEAEB
:101408000405494C6560246822404D6815F4803F06
:1014180001D04CEA0402444C226001330F2B7DD8E2
:1014280001229A400C6804EA020C32EA0404F4D15E
:101438004C6804F00304013C012C88D94A6802F086
:101448000302032A09D0C4685D000322AA4024EAE3
:1014580002048A68AA402243C2604A6802F0030272
:10146800022A8BD004684FEA430E032202FA0EF2D6
:1014780024EA02044A6802F0030202FA0EF2224346
:1014880002604A6812F4403FC7D000220192274AFE
:10149800546C44F480445464526C02F480420192C7
:1014A800019A9C08A51C1F4A52F8255003F0030E08
:1014B8004FEA8E0E0F2202FA0EF225EA02051C4AA6
:1014C80090423FF471AF02F5806290421AD002F563
:1014D8008062904218D002F58062904216D002F5E0
:1014E8008062904214D002F58062904212D002F5D8
:1014F8008062904210D002F5806290423FF452AF71
:10150800082252E7012250E702224EE703224CE765
:1015180004224AE7052248E7062246E703B030BD21
:10152800704700BF00380140003C014000380240CD
:10153800000002400AB18161704709048161704767
:10154800002800F0CC8070B5044690F83D30002BA0
:1015580077D0242384F83D302268136823F00103F0
:1015680013602268136843F4004313602268136809
:1015780023F40043136000F049FC62685A4B9A4216
:1015880064D85A4B98428CBF00230123002B40F0AB
:10159800A8805749A1FB00318B0C25686A6822F0A6
:1015A8003F0242EA91426A6021680A6A22F03F02D9
:1015B80066684D4DAE424FD8013313430B62216824
:1015C800CA6922F44F4222F0FF026568464B9D42E9
:1015D8004CD8431E6D00B3FBF5F3013340F6FC70A5
:1015E800034278D0C3F30B031A43CA6121680B681E
:1015F80023F0C003E269206A024313430B602168A9
:101608008B6823F4034323F0FF032269E068024355
:1016180013438B602168CB6823F0FF036269A069DC
:1016280002431343CB602268136843F0010313603D
:1016380000202064202384F83D30206384F83E0095
:1016480070BD80F83C30FEF781FF82E7294B984255
:101658008CBF0023012399E74FF4967505FB03F32C
:10166800254DA5FB03539B090133A6E7A668BEB920
:10167800431E05EB450CB3FBFCF30133C3F30B032B
:10168800B3FA83F35B0943BBC6B9431E05EB4505B3
:10169800B3FBF5F30133C3F30B0343F40043A3E7B0
:1016A800431E05EB850C0CEB8C0CB3FBFCF30133F0
:1016B800C3F30B03B3FA83F35B09E4E7431E05EBBB
:1016C800850505EB8505B3FBF5F30133C3F30B0380
:1016D80043F4404388E7042386E7012384E7012095
:1016E80070470120ACE700BFA08601007F841E0080
:1016F80083DE1B43FF083D00D34D621030B583B035
:1017080000287AD00446056890F89534C3B10323BD
:1017180084F89534B5F1A04F17D0206801F0FEF891
:10172800237C8DF80030231D0ECB206801F0ADF826
:1017380070B1022384F895340125284603B030BDE2
:1017480080F89434FFF726FBE1E70023A371E4E770
:101758000021206801F014FA024608B9034617E090
:10176800022384F895340125E7E703EBC30104EB72
:101778008101012048750B75CB8500200876C8616A
:10178800086203EBC30104EB810148620133DBB259
:1017980020799842E9D816E002EBC20304EB8303F0
:1017A800002183F8551283F8542283F85812C3F89D
:1017B8005C12C3F8601202EBC20304EB8303C3F8A4
:1017C80064120132D2B29042E6D8237C8DF8003000
:1017D800231D0ECB206801F0F7F8054620B102233F
:1017E80084F895340125A8E700236374012384F85D
:1017F8009534206801F0B2F99FE701259DE70000C4
:10180800002800F0E08170B582B00446036813F048
:10181800010F3BD09F4B9B6803F00C03042B2CD08B
:101828009C4B9B6803F00C03082B21D06368B3F52D
:10183800803F4FD0B3F5A02F52D0964B1A6822F4B0
:1018480080321A601A6822F480221A606368002BBA
:1018580050D0FFF74FFB05468E4B1B6813F4003F33
:1018680014D1FFF747FB401B6428F5D90320B1E1E9
:10187800884B5B6813F4800FD8D0864B1B6813F431
:10188800003F03D06368002B00F09F81236813F0AA
:10189800020F54D07F4B9B6813F00C0F3ED07D4B4A
:1018A8009B6803F00C03082B33D0E368002B68D047
:1018B800794B01221A60FFF71DFB0546754B1B6823
:1018C80013F0020F54D1FFF715FB401B0228F5D97E
:1018D80003207FE16F4A136843F480331360B5E750
:1018E8006C4B1A6842F480221A601A6842F48032FB
:1018F8001A60ABE7FFF7FEFA0546664B1B6813F460
:10190800003FC3D0FFF7F6FA401B6428F5D903203F
:1019180060E1604B5B6813F4800FC6D15D4B1B68B8
:1019280013F0020F03D0E368012B40F05081594AAD
:10193800136823F0F803216943EAC103136023689D
:1019480013F0080F42D063696BB3534B0122C3F8FD
:10195800802EFFF7CFFA05464E4B5B6F13F0020F50
:1019680034D1FFF7C7FA401B0228F5D9032031E12B
:10197800484A136823F0F803216943EAC103136056
:10198800DDE7454B00221A60FFF7B4FA0546414BE4
:101998001B6813F0020FD2D0FFF7ACFA401B0228E5
:1019A800F5D9032016E13C4B0022C3F8802EFFF73F
:1019B800A1FA0546374B5B6F13F0020F06D0FFF70D
:1019C80099FA401B0228F5D9032003E1236813F094
:1019D800040F77D02F4B1B6C13F0805F33D100239B
:1019E80001932C4B1A6C42F080521A641B6C03F062
:1019F80080530193019B0125284B1B6813F4807FBA
:101A080023D0A368012B34D0052B38D0214B1A6F73
:101A180022F001021A671A6F22F004021A67A368FB
:101A2800002B3DD0FFF766FA06461A4B1B6F13F0E2
:101A3800020F46D1FFF75EFA801B41F288339842C5
:101A4800F3D90320C6E00025D6E7144A136843F407
:101A580080731360FFF74EFA0646104B1B6813F4A9
:101A6800807FCED1FFF746FA801B0228F5D90320E4
:101A7800B0E0084A136F43F001031367CFE7054B43
:101A88001A6F42F004021A671A6F42F001021A67CD
:101A9800C5E700BF00380240000047420070004020
:101AA800FFF728FA0646524B1B6F13F0020F08D0B7
:101AB800FFF720FA801B41F288339842F3D90320BC
:101AC80088E0EDB9A369002B00F08380484A92684A
:101AD80002F00C02082A51D0022B17D0454B0022E5
:101AE8001A66FFF707FA0446414B1B6813F0007F9C
:101AF80042D0FFF7FFF9001B0228F5D9032069E05F
:101B08003B4A136C23F080531364DBE7394B002204
:101B18001A66FFF7EFF90546354B1B6813F0007F8F
:101B280006D0FFF7E7F9401B0228F5D9032051E05A
:101B3800E369226A1343626A43EA8213A26A52087B
:101B4800013A43EA0243E26A43EA0263284A5360DD
:101B5800284B01221A66FFF7CDF90446244B1B686F
:101B680013F0007F06D1FFF7C5F9001B0228F5D94D
:101B780003202FE000202DE000202BE0012B2BD0AC
:101B88001B4B5B6803F48001E269914226D103F0A4
:101B98003F02216A8A4223D1616A47F6C0721A401D
:101BA800B2EB811F1ED103F44031A26A5208013AF8
:101BB800B1EB024F18D103F07063E26AB3EB026F26
:101BC80014D1002006E001207047012002E0012026
:101BD80000E0002002B070BD0120FBE70120F9E71A
:101BE8000120F7E70120F5E70120F3E70120F1E7FD
:101BF800003802400000474208B5264B9B6803F0B6
:101C08000C03042B41D0082B41D1224B5A6802F017
:101C18003F025B6813F4800F12D01E4B5968C1F362
:101C280088111D480023A1FB0001FEF7A9FA194BF2
:101C38005B68C3F3014301335B00B0FBF3F008BDFD
:101C4800144B5868C0F388104FEA401CBCEB000CDA
:101C58006EEB0E0E4FEA8E1343EA9C634FEA8C112B
:101C6800B1EB0C0163EB0E03DB0043EA5173C900CF
:101C780011EB000C43F10003990200234FEA8C207A
:101C880041EA9C51FEF77CFAD1E70348D7E70348BD
:101C9800D5E700BF0038024040787D010024F400F9
:101CA800002800F09B8070B50D4604464F4B1B681A
:101CB80003F007038B4208D2CBB24C4A1370136867
:101CC80003F007038B4240F08B80236813F0020F68
:101CD80017D013F0040F04D0454A936843F4E05337
:101CE8009360236813F0080F04D0414A936843F4C3
:101CF800604393603E4A936823F0F003A1680B4366
:101D08009360236813F0010F32D06368012B21D050
:101D18009A1E012A25D9364A126812F0020F61D09C
:101D280033498A6822F0030213438B60FFF7E2F815
:101D380006462F4B9B6803F00C036268B3EB820FD7
:101D480016D0FFF7D7F8801B41F288339842F0D9B4
:101D5800032042E0264A126812F4003FE0D1012035
:101D68003BE0234A126812F0007FD9D1012034E009
:101D78001E4B1B6803F00703AB4207D9EAB21B4BA3
:101D88001A701B6803F00703AB422DD1236813F0C8
:101D9800040F06D0164A936823F4E053E1680B4316
:101DA8009360236813F0080F07D0114A936823F44F
:101DB8006043216943EAC1039360FFF71DFF0C4BA1
:101DC8009B68C3F303130B4AD35CD8400A4B1860D3
:101DD8000A4B1868FFF742F8002070BD01207047D1
:101DE8000120FAE70120F8E70120F6E7003C02406D
:101DF800003802408C300008000000200800002055
:101E0800014B1868704700BF0000002008B5FFF7B5
:101E1800F7FF044B9B68C3F38223034AD35CD84083
:101E280008BD00BF003802408430000808B5FFF73D
:101E3800E7FF044B9B68C3F34233034AD35CD840A3
:101E480008BD00BF003802408430000800285AD07E
:101E580010B50446436A33B94368B3F5827F05D0A9
:101E68000023C36102E00023036143610023A362EE
:101E780094F85130002B40D0022384F85130226866
:101E8800136823F040031360636803F48273A26845
:101E980002F404421343E26802F400621343226925
:101EA80002F002021343626902F001021343A269BD
:101EB80002F400721343E26902F038021343226A03
:101EC80002F080021343A26A02F40052216813430D
:101ED8000B60638B03F00403626A02F0100221684E
:101EE80013434B602268D36923F40063D361002055
:101EF8006065012384F8513010BD84F850302046C5
:101F0800FEF7F6FBB8E701207047000030B4036A1B
:101F1800026A22F0010202624268846924F0730CAA
:101F28000C6844EA0C0423F0020C8B6843EA0C03A7
:101F3800114DA84203D005F58065A84205D123F0CC
:101F48000803CD682B4323F004030B4DA84203D0AC
:101F580005F58065A84207D122F440724D6945EA2B
:101F6800020C8A6942EA0C02426084614A68426350
:101F7800036230BC704700BF0000014030B4036A00
:101F8800026A22F4807202624268C46924F0730C07
:101F98000C6844EA0C0523F400738C6843EA0423B4
:101FA800114CA04203D004F58064A04206D123F46A
:101FB8000063CC6843EA042323F480630A4CA042FC
:101FC80003D004F58064A04207D122F440524C6942
:101FD80042EA04128C6942EA04124260C5614A6806
:101FE800C263036230BC70470000014030B4036A2A
:101FF800026A22F4805202624468C26922F4E6420C
:102008000D6842EA052223F400538D6843EA05333C
:10201800094DA84203D005F58065A84204D124F4EF
:1020280080444D6944EA85144460C2614A68026488
:10203800036230BC704700BF0000014010B4036A5F
:10204800046A24F001040462846924F0F00C4CEA68
:10205800021223F00A030B438261036210BC70472B
:1020680010B4036A046A24F010040462846924F436
:10207800704C4CEA023223F0A00343EA0113826158
:10208800036210BC7047836823F070030B4343F06E
:102098000703836070477047704770477047704701
:1020A800704770B504460368DE681D6915F0020FB5
:1020B80010D016F0020F0DD06FF002021A61012342
:1020C800037703689B6913F0030F5ED0FFF7E6FF01
:1020D8000023237715F0040F12D016F0040F0FD049
:1020E80023686FF004021A610223237723689B692F
:1020F80013F4407F4FD02046FFF7D0FF002323770B
:1021080015F0080F12D016F0080F0FD023686FF0E3
:1021180008021A61042323772368DB6913F0030F8D
:1021280040D02046FFF7BAFF0023237715F0100FA1
:1021380012D016F0100F0FD023686FF010021A613A
:10214800082323772368DB6913F4407F31D02046C6
:10215800FFF7A4FF0023237715F0010F02D016F034
:10216800010F2DD115F0800F02D016F0800F2FD15E
:1021780015F0400F02D016F0400F31D115F0200FA6
:1021880002D016F0200F33D170BDFFF786FF20462E
:10219800FFF785FF9CE72046FFF77FFF2046FFF704
:1021A8007EFFABE72046FFF778FF2046FFF777FF73
:1021B800BAE72046FFF771FF2046FFF770FFC9E72F
:1021C80023686FF001021A612046FFF765FFC9E72F
:1021D80023686FF080021A61204600F077FAC7E79B
:1021E80023686FF040021A612046FFF759FFC5E7E0
:1021F80023686FF020021A61204600F066FAC3E7F0
:102208000368344A904212D0B0F1804F0FD0A2F543
:102218007C4290420BD002F58062904207D002F5D2
:102228008062904203D002F57842904203D123F0B5
:1022380070034A681343274A90422AD0B0F1804F6E
:1022480027D0A2F57C42904223D002F580629042CA
:102258001FD002F5806290421BD002F5784290426E
:1022680017D002F57052904213D002F58062904266
:102278000FD002F5806290420BD0A2F598329042BE
:1022880007D002F58062904203D002F58062904246
:1022980003D123F44073CA68134323F080034A69C7
:1022A800134303608B68C3620B688362094B9842CF
:1022B80003D003F58063984201D10B6903630123BE
:1022C8004361036913F0010F03D0036923F001038D
:1022D800036170470000014040B310B5044690F810
:1022E8003D30F3B1022384F83D30214651F8040B08
:1022F800FFF786FF012384F8463084F83E3084F8DF
:102308003F3084F8403084F8413084F8423084F813
:10231800433084F8443084F8453084F83D30002058
:1023280010BD80F83C30FEF795FADBE701207047D6
:1023380040B310B5044690F83D30F3B1022384F859
:102348003D30214651F8040BFFF75AFF012384F86A
:10235800463084F83E3084F83F3084F8403084F8C2
:10236800413084F8423084F8433084F8443084F8AB
:10237800453084F83D30002010BD80F83C30FFF730
:102388008AFEDBE70120704730B4036A026A22F054
:10239800100202624468826922F4E6420D6842EA49
:1023A800052223F020038D6843EA0513114DA84246
:1023B80003D005F58065A84206D123F08003CD68D7
:1023C80043EA051323F040030A4DA84203D005F55C
:1023D8008065A84207D124F440644D6944EA850425
:1023E8008D6944EA8504446082614A6882630362B5
:1023F80030BC70470000014038B590F83C30012BE4
:1024080066D004460D46012380F83C300C2A5AD881
:10241800DFE802F0075959591B5959593059595988
:1024280044000068FFF772FD2268936943F00803CF
:1024380093612268936923F0040393612268936986
:1024480029690B43936100203EE00068FFF79CFF79
:102458002268936943F4006393612268936923F4C3
:102468008063936122689369296943EA0123936130
:10247800002029E00068FFF781FD2268D36943F056
:102488000803D3612268D36923F00403D361226867
:10249800D36929690B43D361002015E00068FFF771
:1024A800A5FD2268D36943F40063D3612268D36928
:1024B80023F48063D3612268D369296943EA01233D
:1024C800D361002000E00120002384F83C3038BDAF
:1024D8000220FCE710B4846824F47F4C42EA03220B
:1024E8000A4342EA0C02826010BC704790F83C3004
:1024F800012B78D010B50446012380F83C30022324
:1025080080F83D300268936823F47F4323F0770313
:1025180093600B68602B4CD023D8402B54D011D833
:10252800202B03D00AD80BB1102B05D119462068EF
:10253800FFF7A9FD002028E0012026E0302BF5D088
:10254800012022E0502B0AD1CA6849680068FFF7C9
:1025580075FD50212068FFF796FD002015E0012049
:1025680013E0B3F5805F3AD0B3F5005F14D0702B59
:1025780037D1CB684A6889680068FFF7ABFF2268E3
:10258800936843F0770393600020012384F83D307B
:10259800002384F83C3010BDCB684A68896800681D
:1025A800FFF798FF2268936843F480439360002004
:1025B800EBE7CA6849680068FFF752FD60212068A8
:1025C800FFF761FD0020E0E7CA6849680068FFF787
:1025D80035FD40212068FFF756FD0020D5E7002093
:1025E800D3E70120D1E702207047000090F83C2093
:1025F800012A3CD010B40346012280F83C20022274
:1026080080F83D2002685068946820F0700C0868D3
:1026180040EA0C0050601A68164882421AD0B2F19B
:10262800804F17D0A0F57C40824213D000F580601F
:1026380082420FD000F5806082420BD000F57840CE
:10264800824207D000F57050824203D0A0F5943042
:10265800824204D124F08004496821439160012218
:1026680083F83D20002083F83C0010BC704702200E
:10267800704700BF00000140024690F83C30012B33
:1026880021D0012380F83C30CB6823F4407388685C
:10269800034323F480634868034323F40063086812
:1026A800034323F480530869034323F40053486920
:1026B800034323F48043C9690B4311684B6400202A
:1026C80082F83C007047022070477047704700004E
:1026D80010B504460268136923F44053C1680B43DC
:1026E8001361836802691A4343691A43C3691A4329
:1026F8000168CB6823F4164323F00C031343CB6023
:102708000268536923F4407381690B43536103687A
:10271800314A934206D002F58062934202D0FFF715
:1027280075FB01E0FFF782FBE369B3F5004F29D0A1
:102738000021031849411B1841F10001C90041EA71
:102748005371DB00181863684FEA83024FEA9373EA
:1027580041F10001FDF714FD204AA2FB00314909AF
:10276800642303FB11031B013233A2FB03235B0920
:1027780003F0F00202EB011203F00F032168134487
:102788008B6010BD0023021843EB0301121841F1BE
:102798000001C90041EA5271D200101841F100014C
:1027A800626892185B41FDF7EBFC0C4AA2FB003112
:1027B8004909642303FB1103DB003233A2FB032323
:1027C8005B095A0002F4F87202EB011203F00703E6
:1027D800216813448B60D4E7001001401F85EB513A
:1027E80060B310B5044690F8413013B3242384F83D
:1027F80041302268D36823F40053D3602046FFF7A2
:1028080067FF2268136923F49043136122685369B0
:1028180023F02A0353612268D36843F40053D3603A
:1028280000206064202384F8413084F842306063DB
:1028380010BD80F84030FEF731FAD7E70120704725
:1028480082B000230193019B01330193019BB3F1F3
:10285800706F15D80369002BF5DA0023019303691B
:1028680043F001030361019B01330193019BB3F121
:10287800706F08D8036913F0010FF4D1002000E04D
:10288800032002B070470320FBE784B010B504466C
:1028980003A880E80E009DF81130012B21D1A36B0D
:1028A80023F48033A363E36823F4840323F0400311
:1028B800E360E36823F44013E3609DF81830012BCC
:1028C8000AD02046FFF7BCFF9DF80E30012B1CD024
:1028D800BDE8104004B07047E36843F48013E36038
:1028E800EFE7E36843F04003E3602046FFF7A8FF03
:1028F8009DF8153023B9A36B43F48033A363E3E752
:10290800A36B23F48033A363DEE7A36843F00603D5
:10291800A360A36843F02003A360D9E7836823F08A
:10292800010383600020704782B000230193019B5C
:1029380001330193019BB3F1706F15D80369002B24
:10294800F5DA00230193890141F020010161019B1F
:1029580001330193019BB3F1706F08D8036913F039
:10296800200FF4D1002000E0032002B070470320BC
:10297800FBE782B000230193019B01330193019B84
:10298800B3F1706F13D80369002BF5DA00230193B4
:1029980010230361019B01330193019BB3F1706F15
:1029A80008D8036913F0100FF4D1002000E00320C9
:1029B80002B070470320FBE7D0F800381943C0F88D
:1029C800001800207047000084B0F8B5044607A836
:1029D80080E80E00002306E003F1400204EB8202C7
:1029E8000021516001330E2BF6D99DF8266006BBF5
:1029F800D4F8043843F00203C4F80438A36B43F452
:102A08000013A363A36B23F40023A363A36B23F432
:102A18008023A3630023C4F8003E9DF82130012BD6
:102A280015D19DF81F306BB900212046FFF7C4FF70
:102A380011E0A36B23F40013A363A36B43F40023F7
:102A4800A363E7E701212046FFF7B6FF03E0032170
:102A58002046FFF7B1FF10212046FFF765FF054626
:102A680000B101252046FFF784FF00B1012504F5D8
:102A7800006C0023CCF81030CCF81430CCF81C30A3
:102A88000AE0CBB94FF00060C2F8000900220A61E1
:102A98004FF67F328A6001339DF81C10994210D995
:102AA80004EB431202F51061D2F800090028E8DBB4
:102AB8000020C2F80009E9E74FF09040C2F8000989
:102AC800E4E700230AE0BBB14FF09047C2F8007B6F
:102AD800002202614FF67F3282600133994210D999
:102AE80004EB431202F53060D2F8007B002FEADBDA
:102AF8000027C2F8007BEBE74FF00067C2F8007BC5
:102B0800E6E7DCF8103023F48073CCF810300023AB
:102B1800A3616FF0804363619DF81E301BB9A36900
:102B280043F01003A361A2690B4B1343A3619DF803
:102B380022301BB1A36943F00803A361012E04D01E
:102B48002846BDE8F84004B07047A36943F08043C5
:102B580043F00403A361F3E700383C80D0F8003E5B
:102B680023F00303C0F8003ED0F8043843F0020312
:102B7800C0F8043800207047406900F00100704731
:102B880038B50546C36823F0C043C360012913D094
:102B980019BBC36843F08043C36000240A20FEF7D2
:102BA800AFF90A342846FFF7E7FF08B1C72CF5D973
:102BB800C82C14D0002038BDC36843F00053C3604C
:102BC80000240A20FEF79CF90A342846FFF7D4FFB0
:102BD8000128EDD0C72CF4D9EAE70120EBE7012062
:102BE800E9E700002DE9F047089D0E4604460F4628
:102BF800002B4AD194468C45B2FA82F260D942B190
:102C0800C2F12003974020FA03F30CFA02FC1F4399
:102C180094404FEA1C4E1FFA8CF6B7FBFEF1230CCA
:102C28000EFB117743EA074301FB06F098420AD9E5
:102C38001CEB030301F1FF3780F01581984240F245
:102C48001281023963441B1AA4B2B3FBFEF00EFBD7
:102C5800103344EA034400FB06F6A6420AD91CEBEB
:102C6800040400F1FF3380F00081A64240F2FD80A9
:102C78006444023840EA0140A41B00211DB1D4403D
:102C88000023C5E90043BDE8F0878B4205D90DB1A3
:102C9800C5E9000100210846F5E7B3FA83F10029E8
:102CA80046D1B34202D3824200F2F580841A66EB21
:102CB800030201201746002DE5D0C5E90047E2E7E9
:102CC800002A40F09380A1EB0C034FEA1C471FFA3F
:102CD8008CFE0121B3FBF7F607FB1630230C43EA01
:102CE80000430EFB06F0984208D91CEB030306F1DB
:102CF800FF3802D2984200F2D08046461B1AA4B28E
:102D0800B3FBF7F007FB103344EA03440EFB00FE65
:102D1800A64508D91CEB040400F1FF3302D2A645EE
:102D280000F2B6801846A4EB0E0440EA0640A5E778
:102D3800C1F120078B4022FA07FC4CEA030C06FA83
:102D480001FE20FA07F426FA07F344EA0E0400FA13
:102D580001F84FEA1C404FEA1449B3FBF0FE1FFA92
:102D68008CF600FB1E3349EA03430EFB06F999452E
:102D780002FA01F20BD91CEB03030EF1FF3A80F0C3
:102D88008580994540F28280AEF1020E6344A3EB40
:102D98000909A4B2B9FBF0F300FB139944EA09440A
:102DA80003FB06F6A64208D91CEB040403F1FF3026
:102DB80068D2A64266D9023B644443EA0E40A41B8B
:102DC800A0FB02E6B4427346B14652D34FD05DB180
:102DD800B8EB030264EB090404FA07F722FA01F3DB
:102DE8001F43CC40C5E9007400214CE7C2F1200123
:102DF80020FA01F30CFA02FC26FA01F1964033435B
:102E08004FEA1C471FFA8CFEB1FBF7F007FB1016C0
:102E1800190C41EA064100FB0EF68E4204FA02F450
:102E280008D91CEB010100F1FF382DD28E422BD9B5
:102E380002386144891B9BB2B1FBF7F607FB1611F8
:102E480043EA014306FB0EF1994208D91CEB030340
:102E580006F1FF3814D2994212D9023E63445B1A34
:102E680046EA004136E73946EDE6184602E7F045FE
:102E7800ADD2BEEB020366EB0C060138B146A6E7FD
:102E88004646ECE7034698E74046D3E7D6467EE752
:102E98006444023847E708460DE7023E63442DE7DD
:102EA800830730B547D0541E002A3ED0CAB2034625
:102EB80001E0013C39D303F8012B9D07F9D1032C1C
:102EC8002CD9CDB205EB05250F2C05EB054535D9D9
:102ED800A4F1100222F00F0C03F1100EE6444FEAA1
:102EE800121C1A46C2E90055C2E902551032724551
:102EF800F8D10CF1010214F00C0F03EB021204F0EC
:102F08000F0C13D0ACF1040323F003030433134470
:102F180042F8045B9342FBD10CF003042CB1C9B214
:102F28001C4403F8011BA342FBD130BD6446134681
:102F3800002CF4D1F9E703461446C0E71A46A44624
:102F4800E0E700BF70B50F4B0F4DAB42A3EB050692
:102F580007D0B610002455F8043B01349847A64220
:102F6800F9D800F07FF8094D094B5E1BAB424FEAD8
:102F7800A60606D0002455F8043B01349847A6421B
:102F8800F9D870BDA4300008A4300008A4300008A7
:102F9800AC300008704700BF704700BF024B13B148
:102FA800024800F005B8704700000000C52F00086F
:102FB800002301461A46184600F014B838B5074DE4
:102FC800074C2C1BA41005D0013C55F8043D98472C
:102FD800002CF9D1BDE8384000F04AB8B0300008FC
:102FE800AC3000082DE9F8431B4D06462868984682
:102FF8000F469146FFF7CEFF184B1C681CB3286894
:1030080065681F2D22DC4EB96B1C0235636044F8DD
:103018002570FFF7C1FF0020BDE8F88304EB8501A8
:103028000123C1F88890D4F88821AB401A43022EB6
:10303800C4F88821C1F80881E6D1D4F88C211A4354
:10304800C4F88C21E0E7064C1C60D8E7FFF7A4FF22
:103058004FF0FF30E0E700BF0C000020BC07002065
:10306800C0070020F8B500BFF8BC08BC9E467047F2
:0C307800F8B500BFF8BC08BC9E467047CD
:103084000000000001020304000000000000000032
:0830940001020304060708090C
:08309C0050FBFF7F0100000062
:0830A400A52F00082502000819
:0430AC00FD0100081A
:1030B0000024F4000100000010000000B807002008
:0400000508000E11D0
:00000001FF
